{
  "contractName": "FactoryEmoji",
  "abi": [
    {
      "constant": false,
      "inputs": [],
      "name": "newCoin",
      "outputs": [
        {
          "name": "",
          "type": "uint256"
        }
      ],
      "payable": false,
      "stateMutability": "nonpayable",
      "type": "function"
    },
    {
      "inputs": [],
      "payable": false,
      "stateMutability": "view",
      "type": "function",
      "constant": true,
      "name": "owner",
      "outputs": [
        {
          "name": "",
          "type": "address"
        }
      ]
    },
    {
      "inputs": [
        {
          "name": "index",
          "type": "uint256"
        }
      ],
      "payable": false,
      "stateMutability": "view",
      "type": "function",
      "constant": true,
      "name": "getEmoji",
      "outputs": [
        {
          "name": "",
          "type": "address",
          "components": [
            {
              "name": "addr",
              "type": "address"
            },
            {
              "name": "ticker",
              "type": "bytes32"
            },
            {
              "name": "name",
              "type": "bytes32"
            }
          ]
        },
        {
          "name": "",
          "type": "bytes32"
        },
        {
          "name": "",
          "type": "bytes32"
        }
      ]
    },
    {
      "anonymous": false,
      "inputs": [
        {
          "indexed": false,
          "name": "",
          "type": "uint256"
        }
      ],
      "name": "emojis",
      "type": "function",
      "payable": false,
      "stateMutability": "view",
      "constant": true,
      "outputs": [
        {
          "name": "addr",
          "type": "address"
        },
        {
          "name": "ticker",
          "type": "bytes32"
        },
        {
          "name": "name",
          "type": "bytes32"
        }
      ]
    },
    {
      "anonymous": false,
      "inputs": [
        {
          "indexed": false,
          "name": "_newCoin",
          "type": "address"
        }
      ],
      "name": "NewCoin",
      "type": "constructor",
      "payable": false,
      "stateMutability": "nonpayable"
    },
    {
      "anonymous": false,
      "inputs": [
        {
          "indexed": false,
          "name": "index",
          "type": "uint256"
        },
        {
          "indexed": false,
          "name": "_newCoin",
          "type": "address"
        }
      ],
      "name": "NewCoin",
      "type": "event"
    }
  ],
  "bytecode": "0x6060604052341561000f57600080fd5b336000806101000a81548173ffffffffffffffffffffffffffffffffffffffff021916908373ffffffffffffffffffffffffffffffffffffffff1602179055506105f58061005e6000396000f300606060405260043610610062576000357c0100000000000000000000000000000000000000000000000000000000900463ffffffff168063221be0e2146100675780638da5cb5b14610090578063be7d97b3146100e5578063f3c2f32714610166575b600080fd5b341561007257600080fd5b61007a6101e7565b6040518082815260200191505060405180910390f35b341561009b57600080fd5b6100a361038f565b604051808273ffffffffffffffffffffffffffffffffffffffff1673ffffffffffffffffffffffffffffffffffffffff16815260200191505060405180910390f35b34156100f057600080fd5b61010660048080359060200190919050506103b4565b604051808473ffffffffffffffffffffffffffffffffffffffff1673ffffffffffffffffffffffffffffffffffffffff16815260200183600019166000191681526020018260001916600019168152602001935050505060405180910390f35b341561017157600080fd5b6101876004808035906020019091905050610449565b604051808473ffffffffffffffffffffffffffffffffffffffff1673ffffffffffffffffffffffffffffffffffffffff16815260200183600019166000191681526020018260001916600019168152602001935050505060405180910390f35b60008060006101f46104a2565b604051809103906000f080151561020a57600080fd5b91506001805480919060010161022091906104b1565b50600180805490500390508160018281548110151561023b57fe5b906000526020600020906003020160000160006101000a81548173ffffffffffffffffffffffffffffffffffffffff021916908373ffffffffffffffffffffffffffffffffffffffff1602179055507f7469636b657254657374000000000000000000000000000000000000000000006001828154811015156102ba57fe5b906000526020600020906003020160010181600019169055507f6e616d655465737400000000000000000000000000000000000000000000000060018281548110151561030357fe5b906000526020600020906003020160020181600019169055507f98fbda37e5e8245eec2036a8f8c973e2e9923bbcd26d64c6f5f23cd08d16d0ae8183604051808381526020018273ffffffffffffffffffffffffffffffffffffffff1673ffffffffffffffffffffffffffffffffffffffff1681526020019250505060405180910390a1809250505090565b6000809054906101000a900473ffffffffffffffffffffffffffffffffffffffff1681565b60008060006001848154811015156103c857fe5b906000526020600020906003020160000160009054906101000a900473ffffffffffffffffffffffffffffffffffffffff1660018581548110151561040957fe5b90600052602060002090600302016001015460018681548110151561042a57fe5b9060005260206000209060030201600201549250925092509193909250565b60018181548110151561045857fe5b90600052602060002090600302016000915090508060000160009054906101000a900473ffffffffffffffffffffffffffffffffffffffff16908060010154908060020154905083565b60405160908061053a83390190565b8154818355818115116104de576003028160030283600052602060002091820191016104dd91906104e3565b5b505050565b61053691905b8082111561053257600080820160006101000a81549073ffffffffffffffffffffffffffffffffffffffff021916905560018201600090556002820160009055506003016104e9565b5090565b90560060606040523415600e57600080fd5b336000806101000a81548173ffffffffffffffffffffffffffffffffffffffff021916908373ffffffffffffffffffffffffffffffffffffffff160217905550603580605b6000396000f3006060604052600080fd00a165627a7a72305820639ed44957304b16ddfd123cfca381f24f5710c4d9697fc791c535b7da604c1c0029a165627a7a7230582063e9e21bb12fda06b3220769307bc2eec8b7a97fbb30a24b110371ddadc44b770029",
  "source": "pragma solidity ^0.4.17;\n\ncontract FactoryEmoji{\n\n    address public owner;\n    struct Emoji{\n        address addr;\n        bytes32 ticker;\n        bytes32 name;\n    }\n    Emoji[] public emojis;\n\n    event NewCoin(\n        uint index,\n        address _newCoin\n    );\n\n    function FactoryEmoji() public{\n        owner = msg.sender;\n    }\n\n    function getEmoji(uint index) public constant returns(address, bytes32, bytes32){\n        return (emojis[index].addr, emojis[index].ticker, emojis[index].name);\n    }\n\n    function newCoin() public returns(uint){\n\n        EmojiCoin ec = new EmojiCoin();\n\n        emojis.length++;\n        uint index = emojis.length-1;\n        emojis[index].addr = ec;\n        emojis[index].ticker = 'tickerTest';\n        emojis[index].name = 'nameTest';\n\n        NewCoin(index, ec);\n\n        return index;\n    }\n}\n\ncontract EmojiCoin{\n\n  address owner;\n\n  function EmojiCoin() public{\n    owner = msg.sender;\n  }\n}\n",
  "sourcePath": "/media/DATA/opt/coder-forge/emojiCoin/contracts/FactoryEmoji.sol",
  "compiler": {
    "name": "solc",
    "version": "0.4.18+commit.9cf6e910.Emscripten.clang"
  },
  "schemaVersion": "1.0.1",
  "updatedAt": "2017-11-02T22:48:24.519Z"
}